{
  "contractName": "People",
  "abi": [
    {
      "anonymous": false,
      "inputs": [
        {
          "indexed": false,
          "internalType": "string",
          "name": "name",
          "type": "string"
        },
        {
          "indexed": false,
          "internalType": "bool",
          "name": "senior",
          "type": "bool"
        }
      ],
      "name": "personCreated",
      "type": "event"
    },
    {
      "anonymous": false,
      "inputs": [
        {
          "indexed": false,
          "internalType": "string",
          "name": "name",
          "type": "string"
        },
        {
          "indexed": false,
          "internalType": "bool",
          "name": "senior",
          "type": "bool"
        },
        {
          "indexed": false,
          "internalType": "address",
          "name": "deletedBy",
          "type": "address"
        }
      ],
      "name": "personDeleted",
      "type": "event"
    },
    {
      "inputs": [],
      "name": "balance",
      "outputs": [
        {
          "internalType": "uint256",
          "name": "",
          "type": "uint256"
        }
      ],
      "stateMutability": "view",
      "type": "function",
      "constant": true
    },
    {
      "inputs": [],
      "name": "owner",
      "outputs": [
        {
          "internalType": "address",
          "name": "",
          "type": "address"
        }
      ],
      "stateMutability": "view",
      "type": "function",
      "constant": true
    },
    {
      "inputs": [
        {
          "internalType": "string",
          "name": "name",
          "type": "string"
        },
        {
          "internalType": "uint256",
          "name": "age",
          "type": "uint256"
        },
        {
          "internalType": "uint256",
          "name": "height",
          "type": "uint256"
        }
      ],
      "name": "createPerson",
      "outputs": [],
      "stateMutability": "payable",
      "type": "function",
      "payable": true
    },
    {
      "inputs": [],
      "name": "getPerson",
      "outputs": [
        {
          "internalType": "string",
          "name": "name",
          "type": "string"
        },
        {
          "internalType": "uint256",
          "name": "age",
          "type": "uint256"
        },
        {
          "internalType": "uint256",
          "name": "height",
          "type": "uint256"
        },
        {
          "internalType": "bool",
          "name": "senior",
          "type": "bool"
        }
      ],
      "stateMutability": "view",
      "type": "function",
      "constant": true
    },
    {
      "inputs": [
        {
          "internalType": "address",
          "name": "creator",
          "type": "address"
        }
      ],
      "name": "deletePerson",
      "outputs": [],
      "stateMutability": "nonpayable",
      "type": "function"
    },
    {
      "inputs": [
        {
          "internalType": "uint256",
          "name": "index",
          "type": "uint256"
        }
      ],
      "name": "getCreator",
      "outputs": [
        {
          "internalType": "address",
          "name": "",
          "type": "address"
        }
      ],
      "stateMutability": "view",
      "type": "function",
      "constant": true
    },
    {
      "inputs": [],
      "name": "withdrawAll",
      "outputs": [
        {
          "internalType": "uint256",
          "name": "",
          "type": "uint256"
        }
      ],
      "stateMutability": "nonpayable",
      "type": "function"
    }
  ],
  "bytecode": "0x608060405234801561001057600080fd5b50336000806101000a81548173ffffffffffffffffffffffffffffffffffffffff021916908373ffffffffffffffffffffffffffffffffffffffff160217905550611485806100606000396000f3fe6080604052600436106100705760003560e01c80638ec4dc951161004e5780638ec4dc95146100f4578063b69ef8a814610122578063d48e638a1461014d578063fce82d711461018a57610070565b8063102cda4a14610075578063853828b61461009e5780638da5cb5b146100c9575b600080fd5b34801561008157600080fd5b5061009c60048036038101906100979190610cdc565b6101a6565b005b3480156100aa57600080fd5b506100b3610452565b6040516100c09190610d22565b60405180910390f35b3480156100d557600080fd5b506100de61050a565b6040516100eb9190610d4c565b60405180910390f35b34801561010057600080fd5b5061010961052e565b6040516101199493929190610e1b565b60405180910390f35b34801561012e57600080fd5b506101376106ec565b6040516101449190610d22565b60405180910390f35b34801561015957600080fd5b50610174600480360381019061016f9190610e93565b6106f2565b6040516101819190610d4c565b60405180910390f35b6101a4600480360381019061019f9190610ff5565b610793565b005b60008054906101000a900473ffffffffffffffffffffffffffffffffffffffff1673ffffffffffffffffffffffffffffffffffffffff163373ffffffffffffffffffffffffffffffffffffffff16146101fe57600080fd5b6000600260008373ffffffffffffffffffffffffffffffffffffffff1673ffffffffffffffffffffffffffffffffffffffff168152602001908152602001600020600101805461024d90611093565b80601f016020809104026020016040519081016040528092919081815260200182805461027990611093565b80156102c65780601f1061029b576101008083540402835291602001916102c6565b820191906000526020600020905b8154815290600101906020018083116102a957829003601f168201915b505050505090506000600260008473ffffffffffffffffffffffffffffffffffffffff1673ffffffffffffffffffffffffffffffffffffffff16815260200190815260200160002060040160009054906101000a900460ff169050600260008473ffffffffffffffffffffffffffffffffffffffff1673ffffffffffffffffffffffffffffffffffffffff1681526020019081526020016000206000808201600090556001820160006103799190610b56565b600282016000905560038201600090556004820160006101000a81549060ff021916905550506000600260008573ffffffffffffffffffffffffffffffffffffffff1673ffffffffffffffffffffffffffffffffffffffff16815260200190815260200160002060020154146103f2576103f16110c5565b5b7fce505ea5e5a360ed968bacfdf5b52e168dfe627776422d678cb12143ebe187c8828260008054906101000a900473ffffffffffffffffffffffffffffffffffffffff16604051610445939291906110f4565b60405180910390a1505050565b60008060009054906101000a900473ffffffffffffffffffffffffffffffffffffffff1673ffffffffffffffffffffffffffffffffffffffff163373ffffffffffffffffffffffffffffffffffffffff16146104ad57600080fd5b6000600154905060006001819055503373ffffffffffffffffffffffffffffffffffffffff166108fc829081150290604051600060405180830381858888f19350505050158015610502573d6000803e3d6000fd5b508091505090565b60008054906101000a900473ffffffffffffffffffffffffffffffffffffffff1681565b6060600080600080339050600260008273ffffffffffffffffffffffffffffffffffffffff1673ffffffffffffffffffffffffffffffffffffffff168152602001908152602001600020600101600260008373ffffffffffffffffffffffffffffffffffffffff1673ffffffffffffffffffffffffffffffffffffffff16815260200190815260200160002060020154600260008473ffffffffffffffffffffffffffffffffffffffff1673ffffffffffffffffffffffffffffffffffffffff16815260200190815260200160002060030154600260008573ffffffffffffffffffffffffffffffffffffffff1673ffffffffffffffffffffffffffffffffffffffff16815260200190815260200160002060040160009054906101000a900460ff1683805461065d90611093565b80601f016020809104026020016040519081016040528092919081815260200182805461068990611093565b80156106d65780601f106106ab576101008083540402835291602001916106d6565b820191906000526020600020905b8154815290600101906020018083116106b957829003601f168201915b5050505050935094509450945094505090919293565b60015481565b60008060009054906101000a900473ffffffffffffffffffffffffffffffffffffffff1673ffffffffffffffffffffffffffffffffffffffff163373ffffffffffffffffffffffffffffffffffffffff161461074d57600080fd5b6003828154811061076157610760611132565b5b9060005260206000200160009054906101000a900473ffffffffffffffffffffffffffffffffffffffff169050919050565b670de0b6b3a7640000803410156107a957600080fd5b609683106107ec576040517f08c379a00000000000000000000000000000000000000000000000000000000081526004016107e3906111ad565b60405180910390fd5b670de0b6b3a764000034101561080157600080fd5b346001600082825461081391906111fc565b92505081905550610822610b96565b84816020018190525083816040018181525050828160600181815250506041841061085d57600181608001901515908115158152505061086f565b60008160800190151590811515815250505b61087881610aaf565b6003339080600181540180825580915050600190039060005260206000200160009091909190916101000a81548173ffffffffffffffffffffffffffffffffffffffff021916908373ffffffffffffffffffffffffffffffffffffffff160217905550806020015181604001518260600151836080015160405160200161090294939291906112f7565b60405160208183030381529060405280519060200120600260003373ffffffffffffffffffffffffffffffffffffffff1673ffffffffffffffffffffffffffffffffffffffff168152602001908152602001600020600101600260003373ffffffffffffffffffffffffffffffffffffffff1673ffffffffffffffffffffffffffffffffffffffff16815260200190815260200160002060020154600260003373ffffffffffffffffffffffffffffffffffffffff1673ffffffffffffffffffffffffffffffffffffffff16815260200190815260200160002060030154600260003373ffffffffffffffffffffffffffffffffffffffff1673ffffffffffffffffffffffffffffffffffffffff16815260200190815260200160002060040160009054906101000a900460ff16604051602001610a4394939291906113d5565b6040516020818303038152906040528051906020012014610a6757610a666110c5565b5b7f483a95908cf8068144f424e2adef59ae102592afd2706bb3d37a620b6a2304e781602001518260800151604051610aa092919061141f565b60405180910390a15050505050565b600033905081600260008373ffffffffffffffffffffffffffffffffffffffff1673ffffffffffffffffffffffffffffffffffffffff168152602001908152602001600020600082015181600001556020820151816001019080519060200190610b1a929190610bc7565b50604082015181600201556060820151816003015560808201518160040160006101000a81548160ff0219169083151502179055509050505050565b508054610b6290611093565b6000825580601f10610b745750610b93565b601f016020900490600052602060002090810190610b929190610c4d565b5b50565b6040518060a00160405280600081526020016060815260200160008152602001600081526020016000151581525090565b828054610bd390611093565b90600052602060002090601f016020900481019282610bf55760008555610c3c565b82601f10610c0e57805160ff1916838001178555610c3c565b82800160010185558215610c3c579182015b82811115610c3b578251825591602001919060010190610c20565b5b509050610c499190610c4d565b5090565b5b80821115610c66576000816000905550600101610c4e565b5090565b6000604051905090565b600080fd5b600080fd5b600073ffffffffffffffffffffffffffffffffffffffff82169050919050565b6000610ca982610c7e565b9050919050565b610cb981610c9e565b8114610cc457600080fd5b50565b600081359050610cd681610cb0565b92915050565b600060208284031215610cf257610cf1610c74565b5b6000610d0084828501610cc7565b91505092915050565b6000819050919050565b610d1c81610d09565b82525050565b6000602082019050610d376000830184610d13565b92915050565b610d4681610c9e565b82525050565b6000602082019050610d616000830184610d3d565b92915050565b600081519050919050565b600082825260208201905092915050565b60005b83811015610da1578082015181840152602081019050610d86565b83811115610db0576000848401525b50505050565b6000601f19601f8301169050919050565b6000610dd282610d67565b610ddc8185610d72565b9350610dec818560208601610d83565b610df581610db6565b840191505092915050565b60008115159050919050565b610e1581610e00565b82525050565b60006080820190508181036000830152610e358187610dc7565b9050610e446020830186610d13565b610e516040830185610d13565b610e5e6060830184610e0c565b95945050505050565b610e7081610d09565b8114610e7b57600080fd5b50565b600081359050610e8d81610e67565b92915050565b600060208284031215610ea957610ea8610c74565b5b6000610eb784828501610e7e565b91505092915050565b600080fd5b600080fd5b7f4e487b7100000000000000000000000000000000000000000000000000000000600052604160045260246000fd5b610f0282610db6565b810181811067ffffffffffffffff82111715610f2157610f20610eca565b5b80604052505050565b6000610f34610c6a565b9050610f408282610ef9565b919050565b600067ffffffffffffffff821115610f6057610f5f610eca565b5b610f6982610db6565b9050602081019050919050565b82818337600083830152505050565b6000610f98610f9384610f45565b610f2a565b905082815260208101848484011115610fb457610fb3610ec5565b5b610fbf848285610f76565b509392505050565b600082601f830112610fdc57610fdb610ec0565b5b8135610fec848260208601610f85565b91505092915050565b60008060006060848603121561100e5761100d610c74565b5b600084013567ffffffffffffffff81111561102c5761102b610c79565b5b61103886828701610fc7565b935050602061104986828701610e7e565b925050604061105a86828701610e7e565b9150509250925092565b7f4e487b7100000000000000000000000000000000000000000000000000000000600052602260045260246000fd5b600060028204905060018216806110ab57607f821691505b602082108114156110bf576110be611064565b5b50919050565b7f4e487b7100000000000000000000000000000000000000000000000000000000600052600160045260246000fd5b6000606082019050818103600083015261110e8186610dc7565b905061111d6020830185610e0c565b61112a6040830184610d3d565b949350505050565b7f4e487b7100000000000000000000000000000000000000000000000000000000600052603260045260246000fd5b7f416765206e6565647320746f2062652062656c6f772031353000000000000000600082015250565b6000611197601983610d72565b91506111a282611161565b602082019050919050565b600060208201905081810360008301526111c68161118a565b9050919050565b7f4e487b7100000000000000000000000000000000000000000000000000000000600052601160045260246000fd5b600061120782610d09565b915061121283610d09565b9250827fffffffffffffffffffffffffffffffffffffffffffffffffffffffffffffffff03821115611247576112466111cd565b5b828201905092915050565b600081905092915050565b600061126882610d67565b6112728185611252565b9350611282818560208601610d83565b80840191505092915050565b6000819050919050565b6112a96112a482610d09565b61128e565b82525050565b60008160f81b9050919050565b60006112c7826112af565b9050919050565b60006112d9826112bc565b9050919050565b6112f16112ec82610e00565b6112ce565b82525050565b6000611303828761125d565b915061130f8286611298565b60208201915061131f8285611298565b60208201915061132f82846112e0565b60018201915081905095945050505050565b60008190508160005260206000209050919050565b6000815461136381611093565b61136d8186611252565b945060018216600081146113885760018114611399576113cc565b60ff198316865281860193506113cc565b6113a285611341565b60005b838110156113c4578154818901526001820191506020810190506113a5565b838801955050505b50505092915050565b60006113e18287611356565b91506113ed8286611298565b6020820191506113fd8285611298565b60208201915061140d82846112e0565b60018201915081905095945050505050565b600060408201905081810360008301526114398185610dc7565b90506114486020830184610e0c565b939250505056fea26469706673582212206d393dc999258a17c562a1c248598de1b5107691da5789cf0133e857e0d2132b64736f6c634300080a0033",
  "immutableReferences": {},
  "source": "import \"./Ownable.sol\";\r\n\r\n// SPDX-License-Identifier: MIT\r\npragma solidity ^0.8.10;\r\n\r\n\r\ncontract People is Ownable{\r\n\r\n    struct Person {\r\n      uint id;\r\n      string name;\r\n      uint age;\r\n      uint height;\r\n      bool senior;\r\n    }\r\n\r\n    event personCreated(string name, bool senior);\r\n    event personDeleted(string name, bool senior, address deletedBy);\r\n\r\n    uint public balance;\r\n\r\n    modifier costs(uint cost){\r\n        require(msg.value >= cost);\r\n        _;\r\n    }\r\n\r\n    mapping (address => Person) private people;\r\n    address[] private creators;\r\n\r\n    function createPerson(string memory name, uint age, uint height) public payable costs(1 ether){\r\n      require(age < 150, \"Age needs to be below 150\");\r\n      require(msg.value >= 1 ether);\r\n      balance += msg.value;\r\n\r\n        //This creates a person\r\n        Person memory newPerson;\r\n        newPerson.name = name;\r\n        newPerson.age = age;\r\n        newPerson.height = height;\r\n\r\n        if(age >= 65){\r\n           newPerson.senior = true;\r\n       }\r\n       else{\r\n           newPerson.senior = false;\r\n       }\r\n\r\n        insertPerson(newPerson);\r\n        creators.push(msg.sender);\r\n\r\n        assert(\r\n            keccak256(\r\n                abi.encodePacked(\r\n                    people[msg.sender].name,\r\n                    people[msg.sender].age,\r\n                    people[msg.sender].height,\r\n                    people[msg.sender].senior\r\n                )\r\n            )\r\n            ==\r\n            keccak256(\r\n                abi.encodePacked(\r\n                    newPerson.name,\r\n                    newPerson.age,\r\n                    newPerson.height,\r\n                    newPerson.senior\r\n                )\r\n            )\r\n        );\r\n        emit personCreated(newPerson.name, newPerson.senior);\r\n    }\r\n    function insertPerson(Person memory newPerson) private {\r\n        address creator = msg.sender;\r\n        people[creator] = newPerson;\r\n    }\r\n    function getPerson() public view returns(string memory name, uint age, uint height, bool senior){\r\n        address creator = msg.sender;\r\n        return (people[creator].name, people[creator].age, people[creator].height, people[creator].senior);\r\n    }\r\n    function deletePerson(address creator) public onlyOwner {\r\n      string memory name = people[creator].name;\r\n      bool senior = people[creator].senior;\r\n\r\n       delete people[creator];\r\n       assert(people[creator].age == 0);\r\n       emit personDeleted(name, senior, owner);\r\n   }\r\n   function getCreator(uint index) public view onlyOwner returns(address){\r\n       return creators[index];\r\n   }\r\n\r\n   // return(get) the balance after we withdraw\r\n   function withdrawAll() public onlyOwner returns(uint) {\r\n       uint toTransfer = balance;\r\n       balance = 0; // reset as we are withdrawing everything\r\n       payable(msg.sender).transfer(toTransfer); // transferring all the balance to the account (msg.value) of msg.sender\r\n                                                 // if transfer() fails, this will be reverted and throws an error message.             \r\n       return toTransfer;\r\n   }\r\n\r\n}",
  "sourcePath": "D:\\blockchain\\peopleTruffleProject\\contracts\\People.sol",
  "compiler": {
    "name": "solc",
    "version": "0.8.10+commit.fc410830.Emscripten.clang"
  },
  "schemaVersion": "3.4.4",
  "updatedAt": "2022-01-10T02:01:18.698Z",
  "networkType": "ethereum",
  "devdoc": {
    "kind": "dev",
    "methods": {},
    "version": 1
  },
  "userdoc": {
    "kind": "user",
    "methods": {},
    "version": 1
  }
}